:020000040800F2
:100000000809002469030008DF4300083D3A00089E
:10001000DD4300080B0E0008E14D00080000000061
:10002000000000000000000000000000254600085D
:100030008910000800000000E1430008274600087E
:100040008303000883030008830300088303000878
:100050008303000883030008830300088303000868
:100060008303000883030008830300088303000858
:100070008303000883030008830300088303000848
:100080008303000883030008830300088303000838
:100090008303000883030008830300088303000828
:1000A0008303000883030008830300088303000818
:1000B0008303000883030008830300084D3A000807
:1000C000413A000883030008830300088303000803
:1000D00083030008830300088303000883030008E8
:1000E0008303000883030008000000008303000866
:1000F00083030008830300088303000883030008C8
:1001000083030008830300088303000883030008B7
:1001100083030008830300088303000883030008A7
:100120008303000883030008830300088303000897
:100130008303000883030008830300088303000887
:1001400000000000000000000000000000000000AF
:100150008303000883030008830300088303000867
:100160008303000883030008830300088303000857
:100170008303000883030008830300088303000847
:100180008303000883030008830300088303000837
:100190008303000883030008830300088303000827
:1001A0008303000883030008830300088303000817
:1001B0008303000883030008830300088303000807
:1001C00083030008830300088303000883030008F7
:1001D00083030008830300088303000883030008E7
:1001E00083030008830300088303000883030008D7
:1001F00083030008830300088303000883030008C7
:1002000083030008830300088303000883030008B6
:1002100083030008830300088303000883030008A6
:100220008303000883030008830300080000000024
:100230008303000883030008000000008303000814
:100240008303000883030008830300088303000876
:100250008303000883030008830300088303000866
:100260008303000883030008830300088303000856
:1002700083030008830300088303000800000000D4
:1002800083030008830300088303000800000000C4
:10029000000000008303000800F002F800F054F8AA
:1002A0000AA090E8000C82448344AAF10107DA45D1
:1002B00001D100F049F8AFF2090EBAE80F0013F0CF
:1002C000010F18BFFB1A43F001031847C86800006C
:1002D000E8680000103A24BF78C878C1FAD85207FD
:1002E00024BF30C830C144BF04680C6070470000B0
:1002F0000023002400250026103A28BF78C1FBD82F
:10030000520728BF30C148BF0B607047642900F016
:100310007181632900F0CD83732900F0D28300201E
:1003200070471FB506F028FA9DE8030000F0F8FAC0
:1003300000F0C8FC04000020002106F0FFF9401C7A
:1003400060601FBD10B510BD00F097FC1146FFF7AF
:10035000E8FF05F09BFD00F0C7FC03B4FFF7F2FFD8
:1003600003BC00F0F7FC000009488047094800473B
:10037000FEE7FEE7FEE7FEE7FEE7FEE7FEE7FEE755
:10038000FEE7FEE704480549054A064B70470000B2
:10039000B94600089902000808030024080900244F
:1003A000080500240805002470B5064600F098FAF8
:1003B000056806F10B0020F00704B4429CBF002042
:1003C00070BD2B466A68BAB11068A04210D304F120
:1003D000080188423CBF5068586007D35168101923
:1003E00041601168091B016058601460101D70BDE8
:1003F00013465268002AE7D12146284600F07CFACD
:100400000028DED170BD70B50446051F00F068FA03
:100410000068002C14BF446870BD002C18BFAC42AB
:100420003CBF20466468F8D301680A18AA4218BF86
:10043000456003D12A6805461144016028684119C6
:10044000A1421CBF6C6070BD61686960216808448E
:10045000286070BD53EA020C00F069802DE9F04B72
:100460004FF00006002B1FBFB3FA83F503FA05F423
:1004700024FA05F65E4012BF1643B2FA82F502FA7C
:1004800005F4C5F120051EBF22FA05FC44EA0C0460
:10049000203556EA044C4FEA144418BF641C4FF050
:1004A00000084FF00009904271EB030C39D300298A
:1004B00019BFB1FA81F701FA07F6B0FA80F700FA2E
:1004C00007F6C7F120071EBF20FA07FC46EA0C0614
:1004D0002037B6FBF4FCA7EB0507103F07F01F0B16
:1004E000CBF120060CFA0BFB2CFA06F644BFB34600
:1004F0000026202FA4BF5E464FF0000B5BEA060CDF
:1005000008BF4FF0010B19EB0B09ABFB027C48EB6A
:100510000608C01B06FB02CC0BFB03CC71EB0C01E5
:10052000C1E70B46024641464846BDE8F08B13B58D
:100530004FF000004FF00001AFF30080BDE81C4019
:10054000704700000FB41CB5074B06AA7B446946F0
:100550000090059800F083FA0020694600F092FAB6
:100560001CBC5DF814FB0000350500000FB41CB581
:100570000C0007AA009001D02044401E074B7B448A
:1005800069460190069800F06AFA002C03D069468B
:10059000002000F077FA1CBC5DF814FB0D0500008C
:1005A00070B50C460546012A05D02878800600D58E
:1005B000EA69002302E0012305E05B1C934202D2BA
:1005C000E05C0028F9D1A869E618C01AA861286A79
:1005D000184428622846AFF3008004E0D5E90121E1
:1005E00014F8010B9047B442F8D32846AFF30080CB
:1005F00070BD00002DE9F041064600241068752901
:10060000314616A510D0AFF30080002802DA404230
:1006100013A507E031688A0701D512A502E0490752
:1006200004D511A5012401E0AFF3008000210A22C6
:1006300006F1240709E0B0FBF2FCB0FBF2F302FB89
:100640001C00303078541846491C0028F3D123464A
:100650002A463046BDE8F04100F0A3B90000000092
:100660002D0000002B000000200000002DE9F047C5
:100670004FF0000A89460446C0F820A02046E168F1
:100680008847002876D0252806D0D4E90121904754
:10069000206A401C2062F1E7E16820460025884777
:1006A000C4F81CA006460027C4F818A02A2E09D0BA
:1006B000304605F075FB38B304EB8708303EC8F8C8
:1006C000186019E059F8041B204604EB8702916179
:1006D000E1688847012F064618D1E069002820DA32
:1006E00025F020051DE0D8F8180000EB800006EB8F
:1006F00040003038C8F818002046E16888470646B0
:1007000005F04EFB0028EED1012F0AD02E2E08D185
:100710002046E16888477F1C0646022F45F02005E9
:10072000C4DBA069002803DA404245F00105A0615E
:10073000E80701D025F01005B6B1A6F1410019284F
:1007400002D8203645F400654A46314620462560E9
:100750004D46FFF7DBFD58B1012806D0ED1D25F011
:10076000070000F1080989E704E005F1040985E7BD
:1007700030468AE7206ABDE8F08770B5064600F08B
:10078000B3F80468054630460A22002100F09DF9BE
:100790002C6070BD10B5431C02E010F8011B71B154
:1007A0008107FAD14FF0013202C88C1A8C4314EA47
:1007B000C211F9D0C01A0A0603D0C01E10BDC01A5B
:1007C00010BD0A0401D0801E10BD0902FCD0401EDD
:1007D00010BD10B5203AC0F00B80B1E81850203A97
:1007E000A0E81850B1E81850A0E81850BFF4F5AFD1
:1007F0005FEA027C24BFB1E81850A0E8185044BF5B
:1008000018C918C0BDE810405FEA827C24BF51F8C7
:10081000043B40F8043B08BF7047D20728BF31F8BB
:10082000023B48BF11F8012B28BF20F8023B48BF0C
:1008300000F8012B70474FF0000200B513469446B4
:100840009646203922BFA0E80C50A0E80C50B1F128
:100850002001BFF4F7AF090728BFA0E80C5048BF3C
:100860000CC05DF804EB890028BF40F8042B08BFDA
:10087000704748BF20F8022B11F0804F18BF00F8D6
:10088000012B704710B5044610F0030F08BF11F09C
:10089000030F40F015804FF0013E121FC0F20E8092
:1008A00051F8043BA3EB0E0C2CEA030C1CEACE1C03
:1008B00008BF40F8043BF0D0A1F1040102F10402AA
:1008C000521E08DB11F8013B002B00F8013BF7D169
:1008D000114600F032F9204610BD7047704770474E
:1008E00000487047B002002400487047A802002466
:1008F000704770477047704738B504460A46002075
:100900006946AFF30080002808BF38BD0246009951
:10091000204600F041F9012038BD012000F0A5B9C2
:10092000F8B5AFF30080054600200C46102000BF4C
:100930000646A819A0420DD9324669460020AFF3F9
:100940000080070008BF00F090F90098A04218BF8F
:100950000546C419FFF7C4FF05600746F01D20F0E7
:1009600007004619284600F00AF8B44208BFF8BD4F
:10097000A21B31463868BDE8F84000F00DB90021EF
:100980000160C0E9011070471020704710B5FFF7F3
:10099000ABFF006810BD10B50446FFF7A5FF04606B
:1009A00010BD2DE9F0470D4699469246044600F1E8
:1009B00024080168880604D5E06921F0100121604F
:1009C00000E00120A84201DD471B00E00027A169EB
:1009D0007A1902EB0900081AA0612078C00602D437
:1009E0002046AFF30080002608E0D4E901211AF880
:1009F00006009047206A401C761C20624E45F4DBBE
:100A00002078C0060AD52046AFF3008006E0D4E97E
:100A1000012130209047206A401C2062381EA7F137
:100A20000107F4DC07E0D4E9012118F8050090473C
:100A3000206A401C2062281EA5F10105F3DC204637
:100A4000AFF300802078000602D50220BDE8F087D1
:100A50000120FBE701694A1C02610878704700B574
:100A60008FB0CDE901310021059105497944CDE9E7
:100A7000031011466846FFF7F9FD0FB000BD0000F6
:100A8000E5FFFFFF0A6802F8010B0A607047D1E931
:100A900000239A4202D2531C0B601070704710B5AD
:100AA000436913B1AFF3008001E0FFF779FD012046
:100AB00010BD127800F124010A7000224A70012250
:100AC000EDE711684FF0FF32E9E72DE9F047914675
:100AD0000F4680460446002614F8015B2DB100F055
:100AE00053F80068405DC007F6D12B2D02D02D2DA4
:100AF00018D0641E4A463946204600F067F827B1F0
:100B00003968A14201D1C7F800804FF00204710595
:100B10000BD54042002803DDFFF7E6FE0460A00786
:100B2000BDE8F08746F48066E4E70028F8DAFFF7CE
:100B3000DBFE04606FF00040F2E74FF00002042992
:100B4000C0F0128010F0030C3FF477AECCF1040C2F
:100B5000BCF1020F18BF00F8012BA8BF20F8022B30
:100B6000A1EB0C01FFF769BE5FEAC17C24BF00F86E
:100B7000012B00F8012B48BF00F8012B7047000043
:100B800000487047A802002410B500F09BF8001D33
:100B900010BD00BFA95B0000034640688C460028DA
:100BA00018BF88423CBF03464068F8D31868184411
:100BB000884207D00CF1030020F00700001D411A05
:100BC000521A0146081D0A60FFF71DBC2DE9F05FAF
:100BD000824615468B4600270AF10104B946007883
:100BE000302801D09DB113E014F8010B01277828BB
:100BF00003D0582801D045B10AE00DB1102D07D11E
:100C0000002714F8010B102502E0082500E00A2552
:100C10000026B0460EE005FB080005FB06F10127A3
:100C20001FFA80F801EB1046B6F5803F00D3B946B5
:100C300014F8010B294600F049F80028EBDABBF163
:100C4000000F05D00FB1641E00E05446CBF8004001
:100C5000B9F1000F06D0FFF747FE02210160C81E60
:100C6000BDE8F09F48EA0640FAE710B500F04AF800
:100C7000BDE8104000F041B870477546FFF780FFAF
:100C8000AE4605006946534620F00700854618B079
:100C900020B5FFF777FBBDE820404FF000064FF08E
:100CA00000074FF000084FF0000B21F00701AC46A1
:100CB000ACE8C009ACE8C009ACE8C009ACE8C009C0
:100CC0008D46704700487047C80200243A2800D279
:100CD000303820F02002412A01D3A2F137008842A7
:100CE00001D34FF0FF30704710B50446AFF30080DA
:100CF0002046BDE81040FFF730BB002801D000F0CF
:100D000029B8704710B5012805D0002103A000F0D4
:100D100027F8012010BD09A1F8E700005349475208
:100D2000544D454D3A204F7574206F6620686561BB
:100D300070206D656D6F7279000000003A20486583
:100D40006170206D656D6F727920636F727275705E
:100D50007465640001491820ABBEFEE7260002005E
:100D600070B505460C460A2000E06D1C00F046F800
:100D700035B128780028F8D102E0641C00F03EF874
:100D800014B120780028F8D1BDE870400A2000F0A6
:100D900035B800004FF0013C50F8042B51F8043BEB
:100DA0009A4215D1A2EB0C03934313EACC130BD157
:100DB00050F8042B51F8043B9A4209D1A2EB0C03E2
:100DC000934313EACC13E7D04FF00000704700BF05
:100DD000D01A01BAB1FA81F101F0180122FA01F03A
:100DE000CB40C1F12001DBB2C0B2C01A2CFA01F332
:100DF000D11A914311EAC311E6D1704708B569468B
:100E00008DF800000320ABBE08BDFEE710B52DED48
:100E10000E8BD0ED001A90ED011A9FED7E6B9FEDC9
:100E20007F2B9FED803B9FED810B9FED825B9FEDC4
:100E3000834B9FED848AB8EEE17BB8EEC11B17EEC1
:100E4000062B11EE030B35EE421B30EE040BF7EED2
:100E5000C18BB7EEC09BF5EEC08AF1EE10FA13D04D
:100E6000B5EEC09AF1EE10FA02D19FED778A0BE051
:100E700088EE890AB7EEC00A04F0A2F99FED731B51
:100E800030EE410BB7EEC08BB0EE001BB7EEC90AD7
:100E900004F096FAB0EE409BB7EEE80AB0EE001B05
:100EA00004F08EFA39EE000BB6EE001B04F088FA5F
:100EB000B7EEC0BBDFED67BAB0EE001BB7EECB0AF2
:100EC000B0EE409B04F07CFAB0EE40CBB0EE001BDD
:100ED0009FED61ABB0EE4A0B04F072FA3CEE00CB32
:100EE000B0EE001B9FED5EDBB0EE4D0B04F068FA38
:100EF0003CEE40CBB0EE001B9FED5BEBB0EE4E0B3B
:100F000004F05EFA3CEE400B9FED591B80EE012B86
:100F1000B7EEC20BB7EEC00A04F046F8F7EEC08B8E
:100F2000B0EE001BB0EE490B04F04AFAB0EE40CB35
:100F3000B0EE001BB0EE4A0B04F042FA3CEE00CBE0
:100F4000B0EE001BB0EE4D0B04F03AFA3CEE00CBD5
:100F5000B0EE001BB0EE4E0B04F032FA3CEE40CB8C
:100F6000B0EE001BB0EE490B04F02AFAB0EE409B45
:100F7000B0EE001BB0EE4A0B04F022FA39EE000B83
:100F8000B6EE001B04F01CFA9FED3B1B20EE010B9C
:100F90008CEE001BB7EEC10BB7EEC00A04F004F8EC
:100FA000B7EEC09B8BEE8B0AB7EEC00A04F008F9CF
:100FB000B7EEE82A9FED323B0320B7EEC91A33EEB5
:100FC000422BB7EEC00B32EE011BB7EEC02A30EE5B
:100FD000099A31EE021BB7EEC10B05F0EDFA05F0F0
:100FE000A9FA0020B0EE480A05F0E6FA05F0A2FAE8
:100FF0000220B0EE680A05F0DFFA05F09BFA012046
:10100000B0EE490A05F0D8FA05F094FABDEC0E8B63
:10101000002010BD72F90FE9B7AFF33FB0726891CD
:10102000EDBC2940E10B93A98251F53F1C7C613254
:1010300055B007400000000000A061400000000023
:10104000004055400000000054E3853F7B14AE474C
:10105000E17AB43F0000104200000000000042406E
:101060000000000000005A40000000000040604006
:10107000000000000068DA400000000000006A4044
:101080004AD8124DFB21F93F704770B5A2B0064611
:1010900000244FF4C36001258DF80F5002238DF812
:1010A0001D4069038DF80E5009948DF81F400D9076
:1010B00020208DF804508DF8325042028DF8605097
:1010C00006914FF040518DF8384002948DF8614000
:1010D0008DF81C408DF828408DF862408DF80C404A
:1010E0000B948DF81E500F948DF8115012948DF8BA
:1010F00040408DF831408DF8124014948DF85640E0
:101100001790304616938DF8205005928DF8544074
:101110008DF830408DF81050009169468DF80D40E3
:101120008DF8554011948DF84C5000F075F81B95D2
:1011300068058DF871404FF406718DF86850199468
:101140008DF880408DF870401F908DF878401D908C
:1011500030468DF88140219119A900F003F822B0A2
:1011600070BD0000F0B5026847F6020E274E4DF242
:10117000010702F58052264DD1F800C01368254CB6
:1011800023EA0E0343EA0C0313600B79026891F81B
:101190000CE002F58052D1F808C01B0343EACE33BD
:1011A00043EA0C03D2F804C02CEA070C4CEA030C07
:1011B000C2F804C002684F7B02F580520B6A43EA12
:1011C0000747D2F8003133403B43C2F80031026890
:1011D0000B7D02F5805291F81DC00F69D2F80461B1
:1011E0001B0143EA0C332E403B431E43C2F804610B
:1011F00000680B7F00F580508A69D0F8081142EA38
:10120000C37221401143C0F80811F0BD00C0FEFFB9
:10121000EFEFC0FFFFFFC07FF0B50B790C7B0F68CD
:101220008A68DB064D7B43EAC4533A438E7B1A43FC
:10123000CF7B91F810C042EA855242EA4652BCF197
:10124000000F42EA07537CD000224C7C002C43EA7A
:10125000C24278D000238E7C0D7F42EA43428F7FCA
:10126000D1E9053442EA06424E7F1A43224342EA5C
:101270000532002F42EAC62466D00022CD7F91F8C5
:10128000203044EA8222002B42EA45227ED000250B
:1012900004684B6A42EA052291F82870464D1A43C9
:1012A000CE6A236842EA071232432B40134323607D
:1012B00091F83C2091F8383091F8305091F8314055
:1012C000520642EA036291F8326042EA854242EAFB
:1012D0004444BEB300220368384E4F6B44EA0242D6
:1012E0005C683A4340F20F15344014435C60036875
:1012F00091F840604C6CDA6844EA0624AA43224321
:10130000DA6091F854300A6D91F84C4042EA430299
:10131000ECB300240368B1F848504FF60D76E701AE
:101320001C6F47EA05452A43344014431C67026892
:1013300091F8563091F8555052F8904F43EA4503D2
:1013400003E02BE032E02BE02CE024F003041C430C
:10135000146002688C6DD2F8003D23F072032343C1
:10136000C2F8003D91F86020CC6D1AB35FF0000325
:10137000026891F8615091F8621044EA8310D2F843
:10138000303D2C0144EAC101084301E00CE00FE0CC
:1013900023F07B010143C2F8301DF0BD012254E768
:1013A000012358E7012269E7012571E7012292E74D
:1013B0000124AFE70123DBE7838004000080F8C04D
:1013C00072B6FEE72DE9F05F28B190F835100229DA
:1013D00004D0802141650120BDE8F09F904C904BE6
:1013E0000168183C18338E4ADFF83C92A1428D4CBC
:1013F000DFF838E28E4FDFF83CB2DFF83CA28F4DC9
:101400008F4E31D091422FD099422DD0A1422BD076
:10141000494529D0714527D0B94225D0DFF810C2FF
:101420000CF1180C61451FD0DFF808C2ACF1600C5C
:10143000614519D0DFF8FCC1ACF1480C614513D00F
:10144000DFF8F0C1ACF1300C61450DD0DFF8E4C13C
:10145000ACF1180C614507D0594505D0514503D072
:10146000A94201D0B1422CD1DFF8B4C14FF0040839
:1014700080F83580ACF1180C61451DD091421BD02D
:10148000994219D0A14217D0494515D0714513D0C2
:10149000B94211D06648183081420DD06548603895
:1014A000814209D063484838814205D061483038CC
:1014B000814201D05F481838086820F001000860B8
:1014C000ABE0D1F800C02CF00E08DFF854C1C1F831
:1014D0000080ACF1180C0168614527D0914225D0FD
:1014E000994223D0A14221D049451FD071451DD03A
:1014F000B9421BD0DFF838C10CF1180C614515D08A
:10150000DFF830C1ACF1600C61450FD0DFF824C1C9
:10151000ACF1480C614509D0DFF818C1ACF1300CD2
:10152000614503D0DFF80CC1ACF1180CD1F800C054
:101530002CF0010CC1F800C0DFF8E4804FF0010C82
:101540000168A8F11808414546D0914244D099421B
:1015500042D0A14240D049453ED071453CD0B9422D
:101560003AD0334A1832914236D0324A603A9142E8
:1015700032D0304A483A91422ED02E4A303A9142E7
:101580002AD02C4A183A914226D0594524D05145A8
:1015900022D0A94220D0B1421ED02A4A91421BD06B
:1015A000284A1432914217D0264A2832914213D049
:1015B000244A3C3291420FD0224A503291420BD001
:1015C000204A6432914207D01E4A7832914203D0B9
:1015D0001C4A8C32914218D1016E0A6822F4807242
:1015E0000A6090F85C20816D02F01F020CFA02F292
:1015F0004A60D0E919124A60C16E31B10A6822F41A
:1016000080720A60D0E91C124A600022016D80F8E5
:1016100035C080F8342001B188470020DCE60000A6
:10162000280002405800024070000240880002403A
:10163000A00002407004024088040240A00402405E
:10164000B80402400854025890F835007047000072
:1016500070B5044600F0CAFA0546601C02D0044882
:101660000078044400F0C2FA401BA042FAD370BDD7
:1016700008000024F8B5040003D0D4F8840010B1A9
:1016800007E00120F8BD2320C4F88400204600F0C4
:10169000D7F86648016841F002010160006800F077
:1016A00002000090207A08B14FF4000001F0BEFF64
:1016B0005F492068096800F58050016841F0010128
:1016C000016000F093FAE02605464FF4FA7706E051
:1016D00000F08CFA401BB84201D9042023E02068B6
:1016E00000F580500068C007F2D1204600F028F9CC
:1016F00001F0F8FB4F4A2168B0FBF2F0401EC1F840
:10170000DC002046FFF7C1FC206800F58050D0F8CF
:10171000001121F4E01141F40021C0F800116169C9
:10172000880705D00120C4F88800C4F88460A8E7C1
:10173000206847F6FE7300F58050D0F808219A43E0
:1017400042EA4101C0F8081100210846E26800EBB6
:10175000400504EB800302EBC5021160516091600B
:10176000D160401C04289A61F0D3A1620323206851
:1017700000F58050C0F82C312068E26800F58050F8
:10178000C0F814212068E26800F58050C0F82021DC
:101790005FF00002206902EB420604EB820500EBD9
:1017A000C600016041608160C160521C0161042A71
:1017B0004161A864EED3E1652166A166E166A16599
:1017C000206800F58050C0F830312068226900F5AB
:1017D0008050C0F81C212268206902F580524830F0
:1017E000C2F828011025D4E90060134A134B808801
:1017F000C6F80003D4E900600778D0F8010047EA92
:101800000020C6F804032068D0F80C671643C0F81F
:101810000C672068D0F810271A43C0F81027C4F8C6
:101820008810C4F884500020F8BD0000F444025829
:101830000404005840420F006000020C00C0200C5D
:1018400070B586B0044614216846FEF7F4FF3649A9
:101850002068884266D13548016841F40041016042
:10186000016801F400410591016841F48031016093
:10187000016801F480310591016841F40031016093
:10188000006800F40030059028480830016841F0F5
:1018900004010160016801F004010591016841F053
:1018A00001010160016801F001010591016841F049
:1018B00002010160016801F002010591016841F037
:1018C00040010160006800240B26694600F04000DA
:1018D00005903220009002251548CDE90154CDE94C
:1018E000034600F061F886200090CDE901541148CC
:1018F0006946CDE9034600F057F828030090CDE98A
:1019000001540D486946CDE9034600F04DF84FF407
:1019100020500090CDE9015408486946CDE90346BE
:1019200000F042F806B070BD00800240D844025872
:10193000000802580000025800040258001802581B
:1019400070B505460068D0F8000220F4706401F01C
:10195000C9FA1049884202D244F4007416E00E49D4
:10196000884202D244F4407410E00C4988420DD3FE
:101970000B49884202D244F4807407E00949884246
:1019800002D244F4806401E044F4A0642868C0F802
:10199000004270BDC00E16020087930300E1F505FA
:1019A00080D1F00880B2E60E2DE9F84F03247D4D7A
:1019B00000234FF001094FF0B04B4FF00F0AE9E060
:1019C00009FA03F73A4076D00E7906F00306012EA5
:1019D00001D0022E18D1D0F808C04FEA430ECE68CD
:1019E00004FA0EF82CEA080C06FA0EF646EA0C0683
:1019F0008660D0F804C00E792CEA070CC6F30016F6
:101A00009E4046EA0C0646600E79F643B6070BD0B8
:101A1000C6684FEA43088F6804FA08FC26EA0C06F9
:101A200007FA08F73743C7600E7906F00306022E5F
:101A300012D1DE080F694FEA437C00EB8606B646FA
:101A4000366A4FEADC6C0AFA0CF807FA0CF726EA59
:101A500008063743CEF820700F7906684FEA43082E
:101A600007F0030704FA08FC07FA08F726EA0C0651
:101A7000374307604E6816F4403F1CD04A4E376823
:101A800047F00207376036689F0706F002060096A7
:101A900023F0030606F1B046B6463F0FD6F80864B9
:101AA000DFF808810AFA07FC404526EA0C0603D154
:101AB0004FF0000C41E06CE0DFF8F4C0604502D16B
:101AC0004FF0010C39E0DFF8ECC0604502D14FF077
:101AD000020C32E0DFF8E0C0604502D14FF0030CA9
:101AE0002BE0DFF8D8C0604502D14FF0040C24E0B1
:101AF000DFF8CCC0604502D14FF0050C1DE0DFF8E7
:101B0000C4C0604502D14FF0060C16E0DFF8B8C043
:101B1000604502D14FF0070C0FE0DFF8B0C0604520
:101B200002D14FF0080C08E0DFF8A4C0604502D1F4
:101B30004FF0090C01E04FF00A0C0CFA07FC4CEADC
:101B4000060CCEF808C44F68DBF80060FF0226EAF6
:101B5000020600D516435F46CBF80060D1F804C0FA
:101B6000DBF804605FEA8C2C26EA020600D51643F7
:101B70007E606E684F6826EA0206BF0300D51643F2
:101B80006E602E684F6826EA0206FF0300D51643F2
:101B90002E605B1C0A6832FA03F67FF411AFBDE8D1
:101BA000F88F000080000058F444025800000258EA
:101BB0000004025800080258000C02580010025895
:101BC0000014025800180258001C02580020025845
:101BD000002402580AB1816170470904FBE7000044
:101BE00001480068000C70470010005C01488068E4
:101BF000704700000800002430B590F84120202AEA
:101C000024D190F84020012A20D0012380F84030D0
:101C1000242280F84120202300240268156825F042
:101C2000010515600268156825F480551560026885
:101C300015680D43156001680A6842F001020A60E8
:101C400080F8413080F84040002030BD022030BD97
:101C500030B590F84120202A22D190F84020012A66
:101C60001ED0012380F84030242280F84120202417
:101C700000250268136823F00103136002681368EB
:101C800023F4706343EA0121116001680A6842F09D
:101C900001020A6080F8414080F84050002030BDC9
:101CA000022030BD7047704730B403689A691968E4
:101CB000D243D40509D4CC43240606D4456C4FF452
:101CC000807445F001054564DC6153050AD4CB43BB
:101CD0001B0607D4446C4FF4806344F0080444644A
:101CE0000468E36192050AD4C943090607D4426C2B
:101CF0004FF4007142F0020242640268D161416C0B
:101D000011F00B0F02D030BC01F03CBF30BC70476B
:101D10000268436B91691268002B00D01847704726
:101D20007047000070B5040004D094F8410000250D
:101D300010B106E0012070BD204684F8405000F04C
:101D400053F8242084F841002068016821F0010143
:101D50000160D4E9001020F070600861206881689B
:101D600021F400418160E06821680128A06830D03A
:101D700040F404408860E0680228206841682BD065
:101D800021F40061416020682021154A4368134313
:101D900043602068C26822F40042C26054F8106BAD
:101DA0000DCC104340EA0320F06054F81C3CD4E909
:101DB00000021043186054F81C0D026842F0010242
:101DC0000260656484F84110256384F84250002065
:101DD00070BD40F40040CDE741F40061D2E700005F
:101DE000008000027047000010B5B6B00446142110
:101DF00030A8FEF720FDC0216846FEF71CFD2149F2
:101E0000206888423BD10020219008210446CDE97A
:101E10000010684600F062FA08B1FFF7D1FA1A48DC
:101E2000016841F002010160006830AB122100F04E
:101E3000020035904FF4C070042283E81300134869
:101E400030A9CDE93342FFF7AFFD0F4808300168F4
:101E500041F40011016000680022114600F40010F6
:101E600035901F2000F088F81F2000F077F800223E
:101E70002020114600F080F8202000F06FF836B0E6
:101E800010BD000000540040E04402580004025815
:101E9000704770470248816802781144816070473A
:101EA00008000024032010B500F086F801F060F867
:101EB0000F4A104914681368C4F3032203F00F0398
:101EC0008A5CC95C02F01F0201F01F01D0400A4A7F
:101ED00020FA01F1116009490860002000F010F8B3
:101EE00008B1012010BD00F02BF8002010BD00004B
:101EF000184402589A6800081800002414000024AE
:101F000070B50D4D04462878A0B14FF47A71B1FB3D
:101F1000F0F00A490968B1FBF0F001F091FB48B913
:101F2000102C07D200222146501E00F025F8002078
:101F30006C6070BD012070BD0800002414000024F6
:101F4000054808B5016841F002010160006800F031
:101F50000200009008BD0000F4440258002809DB8C
:101F6000410900F01F028900012001F1E0219040A9
:101F7000C1F80001704700000E4BF0B41B680D461D
:101F8000C3F30223C3F10706042E00D90426191D4A
:101F9000072901D2002300E0DB1E012404FA06F128
:101FA0009C40491E2940641E994014402143F0BCC6
:101FB00002F0E6BF0CED00E0064900F0070210B5A4
:101FC0004FF6FF040868044B204040EA0220184303
:101FD000086010BD0CED00E00000FA05134970B573
:101FE0000A68D243520705D5096801F0070181420A
:101FF00013D118E00A6822F0070202430A60FFF7D3
:10200000F5FD0A4D4FF47A760446083D07E000BF1F
:10201000FFF7ECFD001BB04201D9012070BD28681C
:10202000C0438004F4D4002070BD00000C48025866
:1020300010B500F057FF05490968054AC1F30211C0
:10204000515C01F01F01C84010BD0000204402583F
:102050009A680008494930B5484C0B1D0A68143489
:1020600009681D68246802F00303C5F30012C1F378
:102070000531C4F3CC04002914FB02F200EE102A4F
:10208000F8EE400A75D03F4A9FED3D1AB7EE000AC0
:102090006BB1DFED3D1A012B01D0022B64D002EEB3
:1020A000101A1168F8EE422A81EEA22A21E0334C80
:1020B000283C23689B0612D5344B246801EE901A05
:1020C0001168C4F3C104F8EE612AE34001EE903ACE
:1020D000C1F30801F8EE611A81EEA22A0BE001EECD
:1020E000901ADFED2B2A00BFF8EE611A116882EE1C
:1020F000A12AC1F3080101EE901A1168F8EE611AE5
:1021000040EE811A71EE800A62EE200AC1F3462188
:1021100001EE101AB8EE411A31EE001AC0EE811A23
:10212000BCEEE11A80ED001A1168C1F3064101EE20
:10213000101AB8EE411A31EE001AC0EE811ABCEE48
:10214000E11A80ED011A1168C1F3066101EE101A5F
:10215000B8EE411A31EE000A80EE801ABCEEC10AD8
:1021600080ED020A30BD04E001EE901ADFED092A8D
:10217000BAE70021016041608160F3E7284402581A
:1021800000000039384402580024744A0090D003FB
:102190000024744C0024F44A494930B5484C0B1DC6
:1021A0000A681C3409681D68246802F00303C5F33B
:1021B0000022C1F30551C4F3CC04002914FB02F240
:1021C00000EE102AF8EE400A75D03F4A9FED3D1A06
:1021D000B7EE000A6BB1DFED3D1A012B01D0022BE7
:1021E00064D002EE101A1168F8EE422A81EEA22A9B
:1021F00021E0334C283C23689B0612D5344B2468DD
:1022000001EE901A1168C4F3C104F8EE612AE340AC
:1022100001EE903AC1F30801F8EE611A81EEA22AAC
:102220000BE001EE901ADFED2B2A00BFF8EE611AE9
:10223000116882EEA12AC1F3080101EE901A11681B
:10224000F8EE611A40EE811A71EE800A62EE200A01
:10225000C1F3462101EE101AB8EE411A31EE001A10
:10226000C0EE811ABCEEE11A80ED001A1168C1F3CC
:10227000064101EE101AB8EE411A31EE001AC0EE16
:10228000811ABCEEE11A80ED011A1168C1F30661F2
:1022900001EE101AB8EE411A31EE000A80EE801AF3
:1022A000BCEEC10A80ED020A30BD04E001EE901AD6
:1022B000DFED092ABAE70021016041608160F3E7A0
:1022C0002844025800000039404402580024744A4F
:1022D0000090D0030024744C0024F44A2DE9FE4FF2
:1022E0000546DFF8E48350F8081B0024F64FC94385
:1022F000019005F12800264608F124080090080105
:102300001DD4A86E50B1B0F5801F0CD0B0F5001FE1
:102310000ED0B0F5401F1ED001240FE0386840F405
:102320000030386017E00198022102F05BF803E00A
:102330000098022102F0E6F804000CD02646288816
:10234000C043C00523D4A86D05281ED2DFE800F0E5
:102350000C11161B1B00AA6ED8F8001021F44011B6
:102360001143C8F80010EAE7386840F400303860DC
:1023700009E00198002102F035F803E000980021FF
:1023800002F0C0F8044674B100E001242646288813
:10239000C043800528D4E86D80281ED00CDC90B1A5
:1023A00040280ED114E0AA6DD8F8001021F00701E2
:1023B0001143C8F80010EAE7C02813D0B0F5807FB9
:1023C00010D001240FE0386840F40030386009E094
:1023D0000198002102F006F803E00098002102F0C5
:1023E00091F804469CB126462888DFF8DC92C04369
:1023F00009F12C0940052CD4D5F8A800B0F5800FC0
:1024000020D00DDCA0B1B0F5001F0FD115E0EA6DB2
:10241000D8F8001021F4E0711143C8F80010E3E788
:10242000B0F5C00F13D0B0F5000F10D001240FE0AD
:10243000386840F40030386009E00198002101F06C
:10244000D1FF03E00098002102F05CF804467CB163
:1024500026462888C04300052DD4D5F8AC00B0F13D
:10246000007F21D00EDCA8B1B0F1807F10D116E042
:10247000D5F8A820D9F8001021F460011143C9F85B
:102480000010E6E7B0F1407F13D0B0F1806F10D0BC
:1024900001240FE0386840F40030386009E001980A
:1024A000002101F09FFF03E00098002102F02AF8CC
:1024B000044674B126462868C04380011FD4E86CE6
:1024C000D8B110280FD0202812D0302815D00124E0
:1024D00014E0D5F8AC20D9F8001021F0E0611143E8
:1024E000C9F80010E7E7386840F40030386004E0CD
:1024F0000198022101F076FF044674B1264628882F
:10250000C043C0042BD4286EB0F5005F20D00DDC92
:10251000A0B1B0F5805F0FD115E06B48EA6C2030B8
:10252000016821F0300111430160E8E7B0F5405F38
:1025300013D0B0F5804F10D001240FE0386840F47C
:102540000030386009E00198002101F04BFF03E002
:102550000098002101F0D6FF04468CB12646288859
:10256000C043800429D4686EB0F5403F23D010DC0E
:1025700008B3B0F5803F14D0B0F5003F0FD115E09F
:102580002A6ED8F8001021F4E0411143C8F8001079
:10259000E5E7B0F5802F0ED0B0F5A02F0BD00124C9
:1025A0000AE00198012101F01DFF03E000980121DC
:1025B00001F0A8FF044694B126462888C043400491
:1025C0002AD4D5F8B000B0F1405F23D010DC08B3B6
:1025D000B0F1805F14D0B0F1005F0FD115E06A6EEA
:1025E000D8F8001021F4E0211143C8F80010E4E706
:1025F000B0F1804F0ED0B0F1A04F0BD001240AE013
:102600000198012101F0EEFE03E00098012101F0A4
:1026100079FF044674B126462888C04300041FD4BD
:10262000286FD8B1B0F1805F0ED0B0F1005F10D04C
:10263000012414E0D5F8B020D9F8001021F0E041D1
:102640001143C9F80010E7E7386840F400303860FB
:1026500004E00198012101F0C5FE044674B126464C
:102660002868C043C0011ED4A86CD0B101280ED088
:10267000022811D0032814D0012413E02A6FD8F8BF
:10268000001021F040511143C8F80010E8E7386805
:1026900040F40030386004E00198022101F0A2FE0D
:1026A0000446ACB126462868DFF81CB0C043ABF145
:1026B0001C0B400252D40548016841F4807101604E
:1026C000FFF794FA824611E02C4402580048025861
:1026D000FA48AA6C016821F0030111430160E2E7A6
:1026E000FFF784FAA0EB0A00642835D8F4480068A4
:1026F000C005F5D58CBBDFF8C4A3B5F8B4100AF15A
:10270000240ADAF8000001F4407100F440708842B5
:1027100011D0DAF80010DAF8002021F4407142F408
:102720008032CAF80020DAF8002022F48032CAF899
:102730000020CAF80010D5F8B400B0F5807F1AD197
:10274000FFF754FA029012E0FFF750FA0299411A8B
:1027500041F2883081420AD9032426462878DFF8DE
:102760005CA3C0430AF1080AC00721D03CE0DAF8B4
:1027700000008007E8D5D5F8B410C1F30120032884
:1027800058460DD0016821F47C510160B5F8B420A1
:10279000DAF80010C2F30B021143CAF80010DDE7AB
:1027A000C84A036802EA111223F47C511143ECE792
:1027B000E86F182816D005DCA0B1082808D010282A
:1027C00004D10AE020280DD028280BD001240AE0EB
:1027D0000198012101F006FE03E00098012101F0BB
:1027E00091FE044664B126462878C04380071ED473
:1027F000A86F062819D2DFE800F0160C111616167D
:10280000EA6FDAF8001021F038011143CAF800101D
:10281000EAE70198012101F0E5FD03E000980121BC
:1028200001F070FE04467CB100E0012426462878C1
:10283000C04340071FD4D5F89400062819D2DFE81A
:1028400000F0160C11161616AA6FDAF8001021F017
:1028500007011143CAF80010E9E70198012101F0CE
:10286000C1FD03E00098012101F04CFE0446A4B133
:1028700000E0012426462878C04380062BD4D5F8F2
:102880009000B0F1405F24D011DC10B3B0F1805F54
:1028900015D0B0F1005F10D116E0D5F89420D9F82A
:1028A000001021F007011143C9F80010E3E7B0F16F
:1028B000804F0ED0B0F1A04F0BD001240AE0019858
:1028C000002101F08FFD03E00098022101F01AFEC3
:1028D000044694B126462878C04340062BD4D5F848
:1028E0009C00B0F5406F24D011DC10B3B0F5806FC0
:1028F00015D0B0F5006F10D116E0D5F89020DAF8B9
:10290000001021F0E0411143CAF80010E3E7B0F5F0
:10291000805F0ED0B0F5A05F0BD001240AE00198D3
:10292000002101F05FFD03E00098022101F0EAFDC3
:10293000044694B126462878C04300062BD4D5F827
:10294000A000B0F5C04F24D011DC10B3B0F5005F8B
:1029500015D0B0F5804F10D116E0D5F89C20D9F8ED
:10296000001021F4E0511143C9F80010E3E7B0F57D
:10297000004F0ED0B0F5204F0BD001240AE0019893
:10298000002101F02FFD03E00098022101F0BAFDC3
:10299000044654B126462878C04300071ED4D5F813
:1029A0008400B0F5805F0AD00FE0D5F8A020D9F8F8
:1029B000001021F460411143C9F80010EBE70098C2
:1029C000022101F09FFD00B10126D5F88420DAF83C
:1029D000001021F440511143CAF800102878C04378
:1029E000C00613D4D5F89800B0F5807F05D10098C3
:1029F000022101F087FD00B10126D5F89820D9F811
:102A0000001021F440711143C9F800102868C04338
:102A1000000316D4D5F8A40038B1B0F5803F09D032
:102A2000B0F5003F0BD001240AE00198002101F02D
:102A3000D9FC03E00098022101F064FD04468CB14A
:102A400026462868C043400322D4D5F88800B0F554
:102A5000801F11D0B0F5001F13D0B0F5401F15D066
:102A6000012414E0D5F8A420D9F8001021F4403155
:102A70001143C9F80010E4E7386840F400303860CA
:102A800004E00098012101F03DFD04465CB12646BA
:102A90002868C043C00323D4286DA8B1B0F5803F97
:102AA00017D001241BE0D5F88820DAF8001021F4B3
:102AB00040111143CAF80010EAE700004C440258E4
:102AC00000480258CFFFFF00386840F400303860FB
:102AD00004E00198022101F085FC0446E4B1264699
:102AE0002868C043800005D40098022101F00AFD47
:102AF00000B101262868C04380031BD4D5F88000AC
:102B0000B0B1B0F5807F0FD0B0F5007F10D0B0F538
:102B1000407F0DD001240CE05A482A6D016821F451
:102B2000803111430160DBE7386840F400303860E1
:102B3000ECB326462868C043C00207D46A6FD8F8B1
:102B4000001021F000411143C8F800102868C0436C
:102B5000C00008D4D5F8B820DBF8001021F480417B
:102B60001143CBF800102868C043800207D4EA6EF6
:102B7000D8F8001021F080711143C8F800102868BF
:102B8000C04340000CD4DBF8001021F40041CBF826
:102B90000010DBF80010D5F8BC201143CBF8001072
:102BA0002868C04308D437486A6D016800E018E01F
:102BB00021F04051114301602868C043000208D44D
:102BC000D5F88C20DAF8001021F440011143CAF83E
:102BD000001028790024C04300F0010020430AD0EF
:102BE0000FE0D5F88020DAF8001021F4407111438D
:102BF000CAF800109EE70198002101F0F3FB00B134
:102C000006462879C04300F00200204305D1019810
:102C1000012101F0E7FB00B106462879C04300F02E
:102C20000400204305D10198022101F0DBFB00B133
:102C300006462879C04300F00800204305D10098DB
:102C4000002101F05FFC00B106462879C04300F086
:102C50001000204305D10098012101F053FC00B180
:102C600006462879C04300F02000044304D10098B0
:102C7000022101F047FC00B916B10120BDE8FE8F2A
:102C80000020FBE74C4402582DE9F05F04000F469A
:102C90007ED0DFF83882D8F8000000F00F00B8428C
:102CA0000CD2D8F8001021F00F013943C8F80010F9
:102CB000D8F8000000F00F00B84269D12078844DA8
:102CC00040070AD52069296801F07001884204D9BB
:102CD000296821F070010143296020787C4E361D5F
:102CE00000070AD56069316801F07001884204D993
:102CF000316821F07001014331602078C0060AD5A7
:102D0000A069316801F4E061884204D9316821F496
:102D1000E061014331602078DFF8B4B180060BF147
:102D2000080B0CD5E1695846DBF8002002F0700270
:102D3000914204D9026822F070020A4302602078AE
:102D400080070AD5E068296801F00F01884204D99C
:102D5000296821F00F01014329602078C0073ED087
:102D60005B49A2682868183920F470601043286015
:102D70006068022818D0032819D00968012819D0E2
:102D8000490700294ADADFF848A1AAF1080A00E059
:102D900044E0DAF8002022F007020243CAF80020DB
:102DA000FEF724FF814612E009688903E9E7096814
:102DB0008901E6E7C905E4E7FEF718FFA0EB090182
:102DC00041F28830814202D90320BDE8F09F61685A
:102DD000DAF8000000F03800B0EBC10FECD1207839
:102DE00080070AD5E068296801F00F01884204D203
:102DF000296821F00F0101432960D8F800104046EE
:102E000001F00F01B9420BD9016821F00F013943DC
:102E10000160006800F00F00B84201D00120D4E743
:102E2000207840070AD52069296801F0700188429E
:102E300004D2296821F0700101432960207800073D
:102E40000AD56069316801F07001884204D23168A6
:102E500021F07001014331602078C0060AD5A069D5
:102E6000316801F4E061884204D2316821F4E06104
:102E700001433160207880060CD5E1695846DBF8C3
:102E8000002002F07002914204D2026822F0700227
:102E90000A43026000F06CF80E492A682B68C2F3FE
:102EA000032203F00F038A5CC95C02F01F0201F0E9
:102EB0001F01D040084A20FA01F11160074908605B
:102EC00007480068BDE8F05FFFF71AB8002000521D
:102ED000184402589A6800081800002414000024BE
:102EE0000C00002430B500F043F80B4A0B490C4BA2
:102EF00015681468C5F3032204F00F048A5C095DA9
:102F000002F01F0201F01F01D040064A20FA01F131
:102F100019601060084630BD184402589A680008CD
:102F2000180000241400002400B5FFF7DBFF05495A
:102F30000968054AC1F30211515C01F01F01C84044
:102F400000BD00001C4402589A68000800B5FFF755
:102F5000C9FF05490968054AC1F30221515C01F026
:102F60001F01C84000BD00001C4402589A680008B8
:102F7000454970B545480968434B103B11F038028C
:102F800008D00111082A03D0102A0BD0182A0BD020
:102F9000084670BD19688906FBD51968C1F3C101DF
:102FA000C84070BD3A4870BD3749374D18310C1DC7
:102FB00024350A68096826682D6802F0030406F0C3
:102FC0000102C1F30511C5F3CC0515FB02F200EEB9
:102FD000102AB8EE400AE9B32F4ADFED2E0AB7EE09
:102FE000001A6CB1DFED2D1A012C01D0022C43D058
:102FF00002EE101A1068F8EE422A81EEA22A1EE0B4
:103000001C68A40611D51B6801EE901A1168C3F361
:10301000C103F8EE612AD84001EE900AC1F308001E
:10302000F8EE611A81EEA22A0BE001EE901ADFEDB4
:103030001C2A00BFF8EE611A106882EEA12AC0F3C4
:10304000080001EE900AF8EE611A40EE201A31EE07
:10305000810A00E015E022EE000A1068C0F3462065
:10306000401C00EE900AF8EE600A80EE201ABCEEDA
:10307000C10A10EE100A70BD01EE901ADFED092AA8
:10308000D8E7002070BD0000104402580090D00323
:1030900000127A0000000039304402580024744ABB
:1030A0000024744C0024F44A2DE9F05F04007DD024
:1030B000FF4F2078FE4D1837DFF8F493103DC0071E
:1030C00048D0D9F80000396800F03800102815D031
:1030D000182803D101F0030002280FD06068B0F572
:1030E000803F12D010B1B0F5A02F18D0286820F47E
:1030F00080302860286820F4802009E02868800358
:1031000028D560680028D2D024E0286840F48030B8
:103110002860606888B1FEF769FD064609E0286806
:1031200040F480202860F0E7FEF760FD801B6428F3
:103130006FD828688003F7D50CE0FEF757FD0646E8
:1031400005E000BFFEF752FD801B6428F0D8286818
:103150008003F7D4207841F20308D54E0C3E800757
:1031600069D5D9F80000396810F038000ED0182859
:1031700001D188070AD0E06890B3296821F01901CD
:1031800001432960FEF732FD824631E0286840079E
:1031900002D5E06800288AD0E168286820F019008C
:1031A00008432860FEF722FD824607E0DFE000BF0B
:1031B000FEF71CFDA0EB0A000228B9D828684007DA
:1031C000F6D500BFFEF70CFD40451BD8206940280E
:1031D00012D0316821F47C3141EA003030602AE0BD
:1031E00018E000BFFEF702FDA0EB0A0002289FD8FE
:1031F00028684007F6D5E5E7306820F47C3040F4D5
:103200000030EBE7207C316821F0FE4141EA0060AC
:10321000E4E70DE1286820F001002860FEF7E6FCF5
:10322000824605E0FEF7E2FCA0EB0A0002288DD8FA
:1032300028684007F6D42078C0065DD5D9F800008C
:10324000DFF86CB2396800F03800ABF1040B0828E5
:1032500010D0182803D101F0030001280AD0E0693A
:103260000028286838D040F080002860FEF7BEFCB7
:10327000824623E02868C00523D5E069802876D1FE
:103280001FE0206A202821D0316821F0F84141EA6E
:103290008060306030E000BF94F82010DBF8002040
:1032A00022F07C5242EA0161CBF8001024E000BF1A
:1032B000FEF79CFCA0EB0A00022898D82868C005FD
:1032C000F6D5FEF78DFC4045E6D8DAE7306820F009
:1032D000F84040F08040DCE720F080002860FEF7F6
:1032E00085FC064605E000BFFEF780FC801B022837
:1032F0009DD82868C005F7D42078000729D56C48E8
:103300006169643000298046016811D041F00101F3
:103310000160FEF76BFC064605E000BFFEF766FCA9
:10332000801B0228C9D8D8F800008007F6D510E025
:1033300021F001010160FEF759FC064605E000BFDF
:10334000FEF754FC801B022872D8D8F800008007D2
:10335000F6D42078800623D5A0690028286810D0EC
:1033600040F480502860FEF741FC064605E036E157
:10337000FEF73CFC801B02285AD828688004F7D549
:103380000EE020F480502860FEF730FC064604E092
:10339000FEF72CFC801B02284AD828688004F7D44A
:1033A000207840074FD5DFF80C81D8F8001041F4A1
:1033B0008071C8F80010FEF719FC064605E000BF52
:1033C000FEF714FC801B642832D8D8F80000C00532
:1033D000F6D5374EA068603601280AD008B1052816
:1033E00013D0306820F001003060306820F0040015
:1033F00002E0306840F001003060A06841F2883A95
:1034000090B1FEF7F3FB80460AE0306840F004001C
:103410003060EEE7FEF7EAFBA0EB0801514507D864
:1034200030688007F6D50EE0FEF7E0FB804607E047
:1034300084E000BFFEF7DAFBA0EB080151457DD820
:1034400030688007F6D4606AB0B3DFF86480D9F8DA
:10345000001008F120084FF6F87B08F10409C1F3C9
:10346000C2010329A8F1040A69D00228286820F0C3
:103470008070286003D0FEF7B9FB044684E0FEF7B5
:10348000B5FB064605E000BFFEF7B0FB801B022837
:1034900077D828688001F7D4E26A40F2F3313868BF
:1034A00054F8283F884340EA02101843386004E08B
:1034B0001044025800480258B5E0217B4346228957
:1034C0004FF4FE0C208A4FF0FE474902267D521E23
:1034D000401EA1F50071C2F308088AB2761E0CEAFC
:1034E000004042EA08020243504607EA06610A43E6
:1034F0001A60DAF8002022F00102CAF80020D9F898
:103500000020266A22EA0B0242EAC602C9F800201D
:10351000DAF80010A26921F00C011143CAF800107A
:103520000168E26921F0020111430160016841F480
:1035300080310160016841F4003101E021E027E0C1
:103540000160016841F480210160016841F00101DE
:103550000160286840F080702860FEF747FB044651
:1035600005E000BFFEF742FB001B022809D82868CF
:103570008001F7D557E000BFFEF738FB001B02289B
:1035800002D90320BDE8F09F28688001F4D44AE006
:1035900039680128D8F8000021D0A26A01F003039D
:1035A00093421CD1E26AC1F305118A4217D1216B03
:1035B000C0F30802491E8A4211D1616BC0F3462252
:1035C000491E91420BD1A16BC0F30642491E9142A4
:1035D00005D1E16BC0F30660491E814201D0012094
:1035E000D0E7A16C4E46D9F80000C0F3CC00814270
:1035F00019D0DAF80000554620F00100CAF80000A2
:10360000FEF7F4FA4FEA0007FEF7F0FAB842FBD0F3
:10361000A26C306820EA0B0040EAC20030602868E3
:1036200040F0010028600020ACE7000003490A6870
:1036300022F4600202430A6070470000040400584C
:10364000401EB0F1807F10B501D3012010BD4FF0B6
:10365000E02460610F21601701F092FC0020A0615E
:103660000721216110BD30B590F88410012918D0D0
:10367000012280F884202421C0F888100022202410
:1036800001680B680D6823F0005325F001050D60FB
:10369000426601680B60C0F8884080F884201046BC
:1036A00030BD022030BD70B5044690F8840001287A
:1036B0001DD0012284F884202420C4F888002068CA
:1036C0000568026822F0010202602068826822F028
:1036D00060620A438260204601F05CF82268202183
:1036E00000201560C4F8881084F8840070BD0220A2
:1036F00070BD70B5044690F8840001281DD00122E9
:1037000084F884202420C4F88800206805680268B2
:1037100022F0010202602068826822F060420A43BF
:103720008260204601F036F82268202100201560D2
:10373000C4F8881084F8840070BD022070BD10B5F4
:10374000040003D0D4F8880010B107E0012010BDB8
:10375000002084F88400204600F026F82420C4F8D5
:1037600088002068016821F001010160A06A10B1A1
:10377000204601F031F8204601F012F90128E6D088
:103780002068416821F4904141602068816821F0FF
:103790002A0181602068016841F001010160204632
:1037A000BDE8104001F07CB82DE9F041B6B0044608
:1037B000142130A8FDF73FF8C0216846FDF73BF81B
:1037C0003649022620680727324D0024DFF8C880DA
:1037D000884230D100201F940121CDE900106846B5
:1037E000FEF77CFD08B1FDF7EBFD2A4810300168BB
:1037F00041F010010160006800F010003590286869
:1038000040F00200286028680421454600F00200CC
:1038100035904FF400403090CDE93164CDE933412B
:1038200030A94046FEF7C0F840203090CDE9316421
:1038300030A9284626E01A49884227D100201E9444
:103840000221CDE900106846FEF748FD08B1FDF7FA
:10385000B7FD10480830016841F48021016000681C
:1038600000F480203590286840F002002860286825
:1038700030A900F0020035904FF440603090CDE95F
:1038800031644046CDE93347FEF78EF836B0BDE8E7
:10389000F0810000E044025800040258001001408A
:1038A000004800402DE9F84F0446D0F88C009B46B4
:1038B00016460D46202802D00220BDE8F88FC5B17B
:1038C000BEB10027C4F890702220C4F88C00E766CF
:1038D0002034FEF78BF9824654F8180CA6874FF473
:1038E0008053E687FF21203C984207D1226912B11C
:1038F00019E00120E1E740F2FF1114E04FF07F02F0
:1039000078B1B0F1805F11D0A4F860709842B4F83B
:1039100060704FF0200801D1206970B12E4600255B
:103920000CE0266936B9A4F86010EFE7216909B107
:103930003F21F8E7A4F86020E8E7002607F0FF0938
:10394000B4F85E00F0B10022534620212046CDF8A5
:1039500000B001F0FBF918B1C4F88C800320ACE78B
:103960002068406A56B100EA090006F8010B00BF62
:10397000B4F85E00401EA4F85E00E1E7384025F888
:10398000020BF5E7C4F88C80002096E72DE9F84398
:103990000446D0F88800984616460D46202802D0E6
:1039A0000220BDE8F883A5B19EB10021C4F89010B3
:1039B0002120C4F888001834FEF718F9814654F81D
:1039C000100CA687E6872027183CB0F5805F02D050
:1039D00003E00120E5E7206910B12E46002510E044
:1039E00000260EE08021204601F0B0F9C0B9DEB11A
:1039F00016F8010B21688862B4F85600401EA4F83E
:103A00005600B4F856004B464FF00002CDF8008047
:103A10000028E7D14FF04001204601F097F948B166
:103A2000C4F888700320BCE735F8020B2168C0F3A6
:103A30000800E0E7C4F888700020B2E7FEE7000065
:103A40000148FEF731B900002C0100240148FEF7BF
:103A50005FB900002C010024806B0021826B02B151
:103A60001165C26B02B1116500F03CBBCA074FF093
:103A700028034FF0000210B506D090F841404222D2
:103A800033EA040400D0F2228C0707D590F84140B5
:103A900042F04402A34301D042F0B0020B0401D52E
:103AA00042F0B802102904D0202905D0402906D0C0
:103AB00007E042F0900204E042F0200201E042F010
:103AC0004002006801689143016010BD01688A6985
:103AD000D243920701D400228A6200688169C943F7
:103AE000C90703D0816941F00101816170472DE967
:103AF000F047044690F8410028220025082182431F
:103B0000206804D0C16184F84050BDE8F08787691F
:103B100086694FF0FE088268D0F80CC04FF4004967
:103B2000E36808EA16460CF0FE08022BC7F30047CC
:103B3000C2F3090207D049462046FFF797FF3246F5
:103B400084F8405010E0062306F0060603EAD2137C
:103B50009E420ED1A36C5B1CA364A36C022BD4D138
:103B6000A564C16184F8405039462046FEF79BF8B1
:103B7000CBE749462046FFF779FF424684F840509C
:103B8000F2E7000070B5444A044690F84100002571
:103B900084F84250E2626585626C282842EA01029C
:103BA000626433D0292831D02A282FD048F203016B
:103BB0002046FFF75BFF2046FFF788FF94F841009F
:103BC000602813D0202184F8411020688269D243F4
:103BD00092060BD48269D243D20605D41022C26168
:103BE000606C40F0040060642068C1616563A16B93
:103BF000206B2A4E19B1112812D0212810D0E16B68
:103C0000F1B3122824D0222822D03EE003212046FE
:103C1000FFF72CFF22492820616384F84100E6E782
:103C200020680168490403D5016821F480410160DE
:103C3000A06BFDF709FD012827D0A06B066584F86D
:103C40004050A06BFDF7BEFB002823D0A06B16E010
:103C500020680168090403D5016821F4004101606E
:103C6000E06BFDF7F1FC01280FD0E06B066584F8EE
:103C70004050E06BFDF7A6FB00280BD0E06B00E0A6
:103C800003E0016DBDE8704008472046BDE8704084
:103C900000F028BA70BD00000000FFFF593A00088C
:103CA000CD3F000870B50446164AC84300254107B9
:103CB0004FF02000E262256384F8410084F842500E
:103CC000656311D42068616A406A0870606A401CAC
:103CD0006062208D40B1618D401E2085491E618546
:103CE000606C40F00400606448F203012046FFF776
:103CF000BDFE21681020C861204684F84050FEF7C0
:103D000071F870BD0000FFFF2DE9F05F0D460168FE
:103D100020270446D1F80080C66A90F84100CF61A0
:103D2000212808D0292806D022280BD02A2809D0FB
:103D300028280ED014E048F201012046FFF796FE35
:103D400021200CE048F202012046FFF78FFE2220DE
:103D500005E048F203012046FFF788FE00202063BB
:103D600020687349426842F4004242602068426819
:103D70000A4042602046FFF7A9FE6FEA08016D4A3B
:103D80006D4BDFF8B8C14804DFF8B491DFF8B4A197
:103D9000DFF8B4B1DFF8B4E10BD42068D0F80080CC
:103DA00028F48048C0F80080A06B0CE04068608573
:103DB00037E0080435D42068D0F8008028F40048A3
:103DC000C0F80080E06B60B300689042EED098428B
:103DD000ECD06045EAD04845E8D05045E6D058459B
:103DE000E4D07045E2D0594A18329042DED0584AA9
:103DF0009042DBD0564A18329042D7D0544A3032E3
:103E00009042D3D0524A48329042CFD0504A60328A
:103E10009042CBD04E4A78329042C7D04C4A903232
:103E2000C4E7E84340070FD4206825F00405626A20
:103E3000406A1070606A401C6062208D20B1628D03
:103E4000401E2085521E6285608D18B1606C40F066
:103E500004006064E843DFF8FC80C00632D4C80682
:103E600030D4618D102051B12168C861606C40F080
:103E70000400606416B3B6F1807F1FD022E094F88E
:103E80004110282902D1B6F1007F04D094F84110E6
:103E9000292905D00FE029462046FFF703FF11E04E
:103EA000464508D02168C8612046FFF70FFE20462E
:103EB00000F052F806E02168C86103E0616C20461A
:103EC000FFF760FE002684F84260606C666368B1AC
:103ED000616C2046FFF756FE94F84100282815D162
:103EE00029462046BDE8F05FFFF7DCBEE06A4546A4
:103EF000A8420DD0204600F02FF8E56284F841700A
:103F00002663204684F84060FDF76CFFBDE8F09F13
:103F100094F8410084F8417022282663204684F8F2
:103F2000406002D0FDF7B5FFF0E7FDF7B1FFEDE728
:103F300000E800FE1000024028000240400002405D
:103F4000580002407000024088000240A000024079
:103F5000100402400000FFFF70B504460068002511
:103F6000016884F84250C9434A0403D4016821F42B
:103F7000804104E0090403D4016821F40041016098
:103F800094F841102820292911D094F841102A29A9
:103F90000CD1222184F84100216302212046FFF741
:103FA00065FD204684F84050FDF772FF70BD212169
:103FB00084F84100216301212046FFF757FD204688
:103FC00084F84050FDF765FF70BD00002DE9F04119
:103FD00090F840300446C06A012B0DD0CB43012538
:103FE00084F840509E066FEA020208D4950606D473
:103FF0002046FFF789FE6FE00220BDE8F081384DD2
:10400000DE064FF080762DD4D7062BD4638D102298
:104010006BB12168CA61616C41F00401616408B14F
:10402000B04259D1616C2046FFF7ACFD54E094F8E2
:104030004130282B02D1B0F1007F04D094F8411018
:10404000292904D00BE02046FFF72CFE44E0A842CB
:1040500005D02068C2612046FFF738FD39E02068AE
:10406000C26139E05F0715D4570713D4618D61B180
:104070002168626A496A1170616A491C6162218D16
:10408000491E2185618D491E6185618D21BBA84234
:104090001FD121E01D0705D4150703D42046FFF7E3
:1040A00026FD19E0990717D4910715D4618D69B1E0
:1040B000606A216800788862606A401C6062608D76
:1040C000401E6085208D401E208505E0B04200D056
:1040D00010B92046FFF740FF002084F840008CE72D
:1040E0000000FFFF10B590F841200021602A05D0A4
:1040F000016380F84010FDF713FE10BD202280F808
:104100004120016380F84010FDF7CCFD10BD000098
:1041100016498023164870B5134A00240A60E12529
:1041200004700126437040F2F4528570C47004712B
:10413000447148600F480E72C8600F48C1E904021C
:104140000846FDF797FA08B172B6FEE7074838212E
:104150003838FCF770FB054821224FF440313838DD
:104160000260C0E9044170BD008002407C00002470
:104170000000002460000430000004302DE9F04706
:1041800086B014216846FCF756FB4648016841F0AA
:1041900004010160016801F004010591016841F02A
:1041A00080010160016801F080010591016841F022
:1041B00001010160016801F001010591016841F010
:1041C00002010160016801F002010591016841F0FE
:1041D00008010160016801F008010591016841F0E2
:1041E00040010160016801F040010591016841F062
:1041F00010010160006844F20106DFF8AC80002283
:1042000000F01000314605904046FDF7E3FCDFF872
:104210009C903711002239464846FDF7DBFCDFF859
:1042200090A0002202215046FDF7D4FC00246946EC
:1042300070100294CDE900041E48FDF7B5FB01257E
:104240000096CDE90154694640460394FDF7ACFB66
:1042500000976946CDE9015448460394FDF7A4FB55
:1042600080204FF488118DE8130013486946FDF74C
:104270009BFB0A2102264FF4C8500090CDE901644F
:10428000CDE903410D486946FDF78EFB009669466E
:10429000CDE9015450460394FDF786FB06B0BDE816
:1042A000F0870000E044025800040258000C025855
:1042B0000010025800080258001802580000025866
:1042C0001248002110B5104C0123114A0460C0E9C6
:1042D0000121C0E9033141618161C1610162FDF7E2
:1042E00021FD08B172B6FEE708480021FDF784FC05
:1042F00008B172B6FEE705480021FDF7A9FC0028C9
:1043000001D072B6FEE710BD005400402C0100241D
:10431000BC7D70101748002110B5154C0C224FF4CD
:10432000E1330460C0E90131C160C0E90412816178
:10433000C161016241628162FFF701FA08B172B6A0
:10434000FEE70C480021FFF7D4F908B172B6FEE78A
:1043500008480021FFF7A7F908B172B6FEE7054843
:10436000FFF781F9002801D072B6FEE710BD00000A
:1043700000100140800100241748002110B5154CA1
:104380000C224FF4E1330460C0E90131C160C0E99F
:1043900004128161C161016241628162FFF7CFF95C
:1043A00008B172B6FEE70C480021FFF7A2F908B188
:1043B00072B6FEE708480021FFF775F908B172B63A
:1043C000FEE70548FFF74FF9002801D072B6FEE777
:1043D00010BD00000048004014020024FEE7FEE784
:1043E000704700002DE9F047454D044689464FF0DF
:1043F000000A2868C04380070AD0414E283E306832
:1044000020F080603060FDF7F1FB0746B04608E021
:104410000120BDE8F08700BFFDF7E8FBC01B0228C4
:1044200067D8D8F800000001F6D4206829684FF456
:10443000FE0721F47C313E0241EA00302860207AF8
:10444000A389B4F804C040022D4D2D495B1E227C87
:10445000ACF1010C1035091DA0F5007080B2521EA0
:10446000CCF3080C07EA034340EA0C00184306EAC1
:104470000262104328600868626920F0C00010439F
:1044800008600A68A06922F0200202430A60281D21
:104490000A6822F010020A6002684FF6F873E469B5
:1044A0009A4342EAC40202600868B9F1000F40F082
:1044B00010020A6011D00868B9F1010F11D040F460
:1044C00000100860D8F80000444640F08060C8F84A
:1044D0000000FDF78BFB05460DE0086840F4002066
:1044E000EFE740F48010ECE7FDF780FB401B02286B
:1044F00001D903208DE720680001F5D5504688E7F3
:10450000284402582DE9F047454D044689464FF0AE
:10451000000A2868C04380070AD0414E283E306810
:1045200020F080503060FDF761FB0746B04608E0A0
:104530000120BDE8F08700BFFDF758FBC01B022833
:1045400067D8D8F800008000F6D4208829684FF496
:10455000FE0721F07C713E0241EA00502860207A7B
:10456000A389B4F804C040022D4D2D495B1E227C66
:10457000ACF1010C1835091DA0F5007080B2521E77
:10458000CCF3080C07EA034340EA0C00184306EAA0
:104590000262104328600868626920F4406010439A
:1045A00008600A68A06922F4007202430A60281DAC
:1045B0000A6822F480720A6002684FF6F873E469B0
:1045C0009A4342EAC40202600868B9F1000F40F45D
:1045D00080720A6011D00868B9F1010F11D040F063
:1045E00080700860D8F80000444640F08050C8F859
:1045F0000000FDF7FBFA05460DE0086840F4800076
:10460000EFE740F40000ECE7FDF7F0FA401B02286A
:1046100001D903208DE720688000F5D5504688E752
:10462000284402587047FDF735BC000010B59CB017
:104630004C216846FCF7FFF8202113A8FCF7FBF893
:104640000220FDF7CBFC1A490A681A4822F0010241
:104650000A600968016821F4404141F400410160A9
:104660000168002401F440411B9101688904FCD5D4
:10467000402209940220009001216846CDE90312EE
:10468000FEF712FD08B172B6FEE73F20CDE9130434
:104690001594012113A816941794189419941A9438
:1046A000FEF7F2FA002801D072B6FEE71CB010BD8A
:1046B0002C040058184802582C48F0B52C4A0168C0
:1046C00041F470010160106800F00F00072804D267
:1046D000106820F00F00C01D106026490020254CF6
:1046E00010340B68244D43F001030B6020600B680D
:1046F0002B400B60136803F00F03072B04D91368DA
:1047000023F00F03DB1D13601A4C1C4A18341C4B9A
:10471000261D371D2060174C1A4D28343060261D89
:104720003860371D23603B1D35601C1D3A60251D18
:104730002E1D1860331D22602860326018600A68E0
:104740000C4B114C22F4802260330A601860206800
:104750006FF30F00B0F1005F03D20C490120C1F8E4
:10476000080143F2D2000A490860F0BD88ED00E07C
:1047700000200052004402587FEDF6EA8002010159
:10478000000202020000FF010010005C00800051E6
:104790000040005230B5416EB9B101680D4B03F1D4
:1047A00008048A688968C2F34262490F5D5C615CF3
:1047B0002D01B5FBF1F1A0F86A10995CA25C09012A
:1047C000B1FBF2F1A0F8681030BD0121A0F86A1029
:1047D000F8E700008A68000890F82810090706D555
:1047E0000168836B4A6822F400421A434A6090F8D9
:1047F0002810C90706D00168C36A4A6822F400324B
:104800001A434A6090F82810890706D50168036B9F
:104810004A6822F480321A434A6090F82810490707
:1048200006D50168436B4A6822F480221A434A6025
:1048300090F82810C90606D50168C36B8A6822F46F
:1048400080521A438A6090F82810890606D50168BC
:10485000036C8A6822F400521A438A6090F8281088
:10486000490611D50168436C4A6822F480121A4344
:104870004A60416CB1F5801F06D10168836C4A68BB
:1048800022F4C0021A434A6090F82810090606D59F
:104890000168C26C486820F40020104348607047EB
:1048A0002DE9F84300250446C0F89050FDF79EF925
:1048B0008046206820266FF07E470068000713D5E9
:1048C0000022434631042046009700F03FFA58B1D9
:1048D000216851E8000F20F0800041E80002002A22
:1048E000F6D1C4F8886021E020680068400722D52E
:1048F000002243464FF480012046009700F026FA3C
:10490000C8B1206850E8001F21F4907140E80012FF
:10491000002AF6D12068083050E8001F21F001017C
:1049200040E80012002AF5D1C4F88C60032084F816
:104930008450BDE8F883C4F88860C4F88C60E566EC
:104940002567002084F88450F3E7000010B5026862
:1049500052E8001F21F4907142E80013002BF6D1B9
:104960000E4B0268083252E8001F194042E800145A
:10497000002CF6D1C16E012908D1026852E8001F4F
:1049800021F0100142E80013002BF6D10021202273
:10499000C0F88C20C166416710BD0000FEFFFFEF2C
:1049A0002DE9F04304468068D84E87B0D84B216883
:1049B000D4E90427D4F81CC010430A68002547EA4C
:1049C0000C073843324002430A602068E2684168BD
:1049D00021F44051114341602268A1699A4201D0FB
:1049E000206A01439768DFF82CC3CB4ECB4807EA17
:1049F0000C070F4397602168676ACA6A22F00F02AA
:104A00003A43CA622268B2420ED1006800F0380010
:104A1000182873D047DCB8B3082879D010286FD194
:104A200078E028287ED17BE0BD498A4209D1006820
:104A300000F00700062875D2DFE800F0546A6C6EBB
:104A40007072B8498A4209D1006800F00700062850
:104A500068D2DFE800F0475D5F616365B2498A4272
:104A600009D1006800F0070006285BD2DFE800F0FB
:104A70003A5052545658AD498A420BD1006800F062
:104A8000070006284ED200E010E0DFE800F02B41DE
:104A900043454749A6498A420AD1006800F03800D8
:104AA000182839D0B7DD2028BBD13CE001203AE0FE
:104AB000A0498A4209D1006800F00700062831D2D7
:104AC000DFE800F01026282A2C2E9B498A420BD1C1
:104AD000006800F00700062824D2DFE800F0031980
:104AE0001B1D1F2100201EE09A421BD18B48001D78
:104AF000006800F00700062814D202E00CE007E08E
:104B000010E0DFE800F0030507090B0D02200AE0C2
:104B1000042008E0082006E0102004E0202002E045
:104B2000402000E080208549DFF814829A42854ABF
:104B30004FF400434FEA21174FF000064ED11028E2
:104B40001AD006DC022809D004280BD008287CD112
:104B50000DE020283ED0402877D13DE0FDF768FAEF
:104B6000014610E06846FDF775FA01990BE003A8CD
:104B7000FDF712FB049906E01068800605D5106861
:104B8000C0F3C100C140002970D0606A676838F87E
:104B9000102007EB4703B1FBF2F0834255D8B0EB8E
:104BA000073F52D8002308461946FBF753FC02463C
:104BB0007808130E120243EA012110183A46714197
:104BC0000023FBF747FC604AA0F5407191423CD8B6
:104BD00021688FE03946D8E71946D6E7D4F81CC0DB
:104BE0004FF6EF799C4546D1082819D005DC58B11D
:104BF00001280CD0042875D10DE0102815D02028EC
:104C000035D040286ED134E0FEF78EF901E0FEF792
:104C10009DF9014610E06846FDF71CFA01990BE08A
:104C200003A8FDF7B9FA049906E01068800604D5D8
:104C30001068C0F3C100C140C1B1636A606838F850
:104C40001330B1FBF3F1490000E04BE001EB500100
:104C5000B1FBF0F0A0F11001494543D84FF6F073D5
:104C60002168C0F342021840104343E043E0394654
:104C7000E3E71946E1E7082819D005DC58B1012817
:104C80000CD004282ED10DE0102815D020282BD0D0
:104C9000402827D12AE0FEF747F901E0FEF756F950
:104CA000014610E06846FDF7D5F901990BE003A82D
:104CB000FDF772FA049906E01068800604D51068C2
:104CC000C0F3C100C140B1B1636A606838F8133005
:104CD000B1FBF3F101EB5001B1FBF0F0A0F11001D9
:104CE000494505D9012506E03946EDE71946EBE7C8
:104CF000216880B2C8600120A4F86A00A4F86800A6
:104D000028466667A66707B0BDE8F083F369FFCF62
:104D1000000C0058FFF4FF110010014054440258E9
:104D20000044004000480040004C0040005000405B
:104D30000014014000780040007C00400090D00347
:104D40007268000800440258FFFC0F002DE9F0478C
:104D5000994617460D460446089E4FF0000833E07A
:104D6000701C31D0FCF742FFA0EB0900B04218D80C
:104D7000BEB120680168490726D5802D24D0402D7A
:104D800022D0C169C94309070DD408250562204610
:104D9000FFF7DCFDC4F89050012084F88480BDE862
:104DA000F0870320FBE7C069C04300050CD42168ED
:104DB0004FF4006008622046FFF7C8FD2021C4F8C8
:104DC000901084F88480ECE72068C06935EA000020
:104DD00004D00020B842C3D00020E0E70120F9E76A
:104DE000FEE7000070B54FF6FF74344808222346F2
:104DF0002FA1FEF7CBFD4FF47A752846FCF728FC6F
:104E00002E480C222EA12346FEF7C0FD2846FCF7B3
:104E10001FFC2A480D222EA12346FEF7B7FD284687
:104E2000FCF716FC254825222DA12346FEF7AEFDF2
:104E30002846FCF70DFC21481D2233A12346FEF72E
:104E4000A5FDE800FCF704FC374967221B48234610
:104E5000FEF79CFD40F6B8352846FCF7F9FB3349D0
:104E60005D2216482346FEF791FD2846FCF7F0FB2D
:104E70002F49492211482346FEF788FD42F210755A
:104E80002846FCF7E5FB2A4949220C482346FEF751
:104E90007DFD2846FCF7DCFB0848182225A12346A7
:104EA000FEF774FD6810BDE87040FCF7D1BB000050
:104EB00041542B5253540D0A00000000800100247D
:104EC00041542B524553544F52450D0A00000000E7
:104ED00041542B43574D4F44453D310D0A000000CE
:104EE00041542B434950534E54504346473D312C77
:104EF000382C226E7470312E616C6979756E2E6358
:104F00006F6D220D0A00000041542B43574A415057
:104F10003D225265646D69222C223132333435369C
:104F20003738220D0A000000286A0008906A00083D
:104F3000F06A000841542B4D5154545355423D30B2
:104F40002C22746F706963222C310D0A000000005E
:104F500003B401984100009850EAC12018BF042012
:104F60004A0D18BF40F0010040F2FF72B2EB515FF2
:104F700008BF40F00200012808BF052002B07047BA
:104F8000090700284FEA116104DB00F1E02080F8F6
:104F90000014704700F00F0000F1E02080F8141DAD
:104FA000704700000000000010B5694A2DED020BAB
:104FB0002DED0C8B82B00F9921F000409FED66CB58
:104FC00090422CDBA0F140530E9AA3F17F631A4369
:104FD0000FD06349884202DC16D10E98A0B19DED36
:104FE0000E0B02B0BDEC0C8B02B0BDE8104000F01F
:104FF000ABBE0029CCBF9FED5C0BB0EE4C0B02B0FA
:10500000BDEC0C8B02B010BD0120FBF7C4FC02B05C
:10501000BDEC0C8B02B0BDE8104000F09DBE544AC0
:105020009FED558B9FED569B90422ADA56499FED96
:1050300058BB8142A8BFB0EE4B0BE0DA9DED0E0BE2
:105040005548062120EE00ABB0EE4A0B784400F044
:1050500033FE20EE0ACB5148B0EE4A0B04217844CF
:1050600000F02AFE0AEE008B9DED0E1B8CEE080B65
:1050700001EE409B9DED0E0B30EE490B3BEE400BDD
:10508000BDE79FED470B9FED48BB9DED0E1B002933
:1050900026DA31EE081B4648062121EE00ABB0EEC1
:1050A0004A0B784400F008FE20EE0ADB4148B0EEDF
:1050B0004A0B0421784400F0FFFD0AEE008B51EC0E
:1050C0001A0B01F043FA8DEE081B41EC100B11EEA8
:1050D000009B30EE091BB0EE4C0B01EE4B0B8EE744
:1050E00038EE411B21EE009B51EC190B01F02EFA1A
:1050F00041EC1C0B00208DED00CB00909DED001BC2
:105100009DED002BB0EE490B2B4801EE420B062122
:105110003CEE011B80EE01ABB0EE490B784400F091
:10512000CBFD20EE09DB2548B0EE490B0421784485
:1051300000F0C2FD09EE008B8DEE080B00EE0CAB0B
:105140009DED000B30EE0A0B20EE0B0B57E7000035
:105150000000F03F00000000182D4454FB210940DE
:105160000000F07F000000000000000000000000D0
:105170000000E03F00000000000000000000F03FE1
:10518000075C143326A6913C0000603C0000000040
:10519000182D4454FB21F93F601800007E180000D0
:1051A000000000000000E03F0000000000000040A0
:1051B0000A1800002818000090170000AE17000021
:1051C00070B565482DED020B2DED048B059D25F086
:1051D0000044A04218DC6148844202DC0AD10498F1
:1051E00040B19DED040BBDEC048B02B0BDE87040F6
:1051F00000F0AABD002DCCBF9FED590B9FED5A0BBF
:10520000BDEC048B02B070BD5948A04215DD594871
:10521000A042D8BF4FF0FF3455DD9DED040B51EC9B
:10522000100BFFF795FE042808BF00F0ADFD9DEDC3
:10523000040BBDEC048B02B070BD9DED040B51EC72
:10524000100B00F0B4FDCDE904014B489FED4C0B71
:10525000A0421CDD4C48A0420BDD9DED042B002438
:105260009FED4B1B12EE010B32EE011B80EE012B6A
:1052700027E09DED041B9DED042B012431EE401B26
:1052800032EE000B81EE002B8DED042B1BE042482B
:10529000A0420FDD9DED042B02249FED411B9DEDEF
:1052A000043B32EE412B03EE010B82EE001B8DED31
:1052B000041B08E09DED040B9FED3B1B032481EED6
:1052C000002B8DED042B9DED040B3948062120EEBB
:1052D000009B29EE098BB0EE480B784400F0ECFC03
:1052E00020EE099B3348B0EE480B0521784400F0CE
:1052F000E3FC20EE080B002C0BDA9DED042B39EEBD
:10530000001B9DED040BBDEC048B02B002EE410BC3
:1053100070BD2948784439EE000B00EBC4009DEDC8
:10532000042B90ED001B254812EE001B9DED040B95
:1053300031EE400B784400EBC400002D90ED001BD3
:1053400031EE400BB8BFB1EE400BBDEC048B02B0A8
:1053500070BD000000000000000010440000F07F5D
:10536000182D4454FB21F93F182D4454FB21F9BF5B
:105370000000DC3F0000203E0000F33F0000000082
:10538000000000000000F03F0000E63F00000000C9
:10539000000000000000004000800340000000000A
:1053A000000000000000F83F000000000000F0BF17
:1053B0008A1600005016000008160000C8150000EC
:1053C0002DE9F04D2DED040B2DED0A8B9AB0DDE9A2
:1053D0002550279CDDF890A025F0004624F00048D9
:1053E000BAF1000F14BF0121002101EB4502F84979
:1053F00053184A1093422AD3002814BF01230023D4
:1054000003EB44030B44F3498B4220D358EA0001D9
:105410009FEDF19B72D0DFF8C8B35D4503D1BAF1BF
:10542000000F05D184E0BAF1000F08BF002100D0C1
:10543000012101EB450111F5001F08D8002814BF18
:105440000121002101EB440111F5001F0BD99DED55
:10545000261B9DED240B1AB0BDEC0A8B04B0BDE8F1
:10546000F04D00F074BC0027002DBCBFDD4988451D
:1054700021DADD498845A8BF02271CDAC3451ADCBA
:10548000DA4901EB2851142908DDC1F1340220FA70
:1054900002F101FA02F282420DD108E058B9C1F1DD
:1054A000140228FA02F101FA02F2424503D101F096
:1054B0000101C1F1020756EA0A0120D1002C1EDACF
:1054C000002D18BF022F01D0012F0AD00220FBF7B8
:1054D00062FA1AB0BDEC0A8B04B0BDE8F04D00F0E2
:1054E00023BC0220FBF757FA00F01EFCB1EE400B84
:1054F0001AB0BDEC0A8B04B0BDE8F08D18E09FED4A
:10550000BCAB9FEDBD8B00287DD1B64880451CD13A
:1055100005F1804010F5801008BFBAF1000F07D0E8
:10552000B34508DC002CA8BF9DED260BE0DA07E0B0
:10553000B0EE490BDCE7002CB8BF9DED260BD5DBA8
:10554000AF48784490ED000BD2E7D84548D1002C05
:1055500043DA2EB186423AD1BAF1000F3DD126E0AE
:10556000BAF1000F13D00220FBF715FA00F000FC8F
:105570008DED020B9DED240B8DED000B10EE900ACE
:10558000039961F31E0003909DED020BB0E78DEDD2
:1055900002AB9DED240B1AEE901A10EE900A8DEDE1
:1055A000000B61F31E0003909DED020BA0E78DED53
:1055B000028B9DED240B18EE901A10EE900A8DEDE3
:1055C000000B61F31E0003909DED020B90E704DADF
:1055D0009DED241B89EE010B8AE79DED240B87E7E7
:1055E00086421ADAB4F1804F04BF9DED240B20EE01
:1055F000000B3FF47DAFA4F10050B0F1FF500CD18F
:10560000002D0ADB00E008E09DED240B51EC100BAF
:1056100000F09CFF41EC100B6AE79DED240B51EC70
:10562000100B00F0C4FBBAF1000FCDE90E0140D120
:105630009FED750B46B3A6F1E040B0F17F600ED050
:105640005E4536D1002D00DA97B3022F0CBF012042
:105650004FF0FF3000EE100AB8EEC00B48E7002D07
:1056600001DD002C0DDA002D01DD002C1DDB002DED
:1056700014DA002C12DB012F08BF9FED650B3FF4FD
:1056800037AFB0EE4A0B33E7022F18BF002D0CD016
:10569000012F0AD1002DFFF62BAF06E0002DB8BF79
:1056A000002C06DA012F3FF423AFB0EE480B1FE7C2
:1056B00019E0012000EBE57050EA070113D0791ED4
:1056C000B0EE498B084308BF9FED538B544800252B
:1056D00080457ADD53495448884514DDB0420DDBDE
:1056E000002C19DB2CE00120FBF755F91AB0BDECBA
:1056F0000A8B04B0BDE8F04D00F02EBBB34502DCD0
:10570000002C09DC1CE0864202DA002C18DA03E0E7
:105710005E4528DD002C13DD0220FBF73CF900F08C
:1057200027FB8DED020B28EE0A0B8DED000B10EE22
:10573000900A039961F31E0003909DED020BD7E6DA
:105740000220FBF728F900F01FFB10EE901A18EE6C
:10575000900A8DED020B8DED008B61F31E0003901E
:105760009DED020BC4E69DED0E0B9FED313B30EE3F
:10577000490B8DED040B20EE002B9DED041B9FEDDE
:105780002E0B01EE430B9DED043B9FED2D1B03EE15
:10579000401B9DED040B9FED2E3B22EE012B9FED58
:1057A0002A1B20EE011B20EE030B9FED2B3B02EE8C
:1057B000430B31EE002B8DED022B02959DED022B5C
:1057C00032EE411B30EE411B21E149E000000000B8
:1057D000FFFF1F00FFFF0F00000000000000F03F70
:1057E0000000F03F0000F07F0000404301FCFFFF9D
:1057F000000000000000F07F00000000000000003A
:10580000DA1400000000000000000000000000802A
:10581000000000000000F0FF000000000000F0BFEA
:105820000000E0410000F043FFFFEF3F00000000F8
:10583000000000000000D03F555555555555D53F47
:10584000000000000000E03F000000604715F73F47
:1058500044DF5DF80BAE543EFE822B654715F73FE3
:105860000020B6F5801F0BDA9DED0E0B9FEDEC1BB3
:105870006FF0340020EE010B10EE906A8DED0E0BF0
:10588000E94A00EB2650C6F31301A0F2FF3741F0BE
:105890007F6040F040509142D8BF002408DDE34AC9
:1058A0008A42C8BF012403DC0024A0F580107F1CBD
:1058B000DF49794401EBC4010F9091ED001B9DED90
:1058C0000E2B9DED0E0BDB4931EE023B30EE410B12
:1058D00089EE032B20EE02AB8DED02AB79440295ED
:1058E00091ED003B4FF0005141EA600000EB844035
:1058F0008DED043B00F5002005909DED043B9DEDF2
:10590000044B2AEE0ACB33EE411B9DED0E3BCA48F9
:10591000062133EE411B9DED023B03EE440B03EEEB
:10592000410B20EE02BBB0EE4C0B784400F0C4F902
:105930002CEE0C1B20EE010B9DED021B31EE0A1B21
:105940000BEE010B9DED021B21EE011B9FEDBC2B0D
:1059500031EE023B33EE003B8DED043B04959DEDB3
:10596000043B33EE422B32EE411B30EE412B9DEDDA
:10597000020B9DED041B20EE011B9DED040B2BEE95
:10598000000B02EE0A0B31EE002B8DED022B02957F
:105990009DED022B32EE411B30EE410B9DED021BC3
:1059A0009FEDA92B21EE021B9DED022B9FEDA83B45
:1059B00022EE032B9FEDA83BA94800EE032B784471
:1059C00000EBC40090ED000BA64832EE000B02EE97
:1059D000107AB8EEC22B8DED042B31EE003B7844EB
:1059E00000EBC4009DED044B90ED002B33EE023B29
:1059F00033EE043B8DED023B02959DED023B33EE11
:105A0000443B33EE422B32EE411B30EE411B9DED09
:105A1000260B954A8DED000B00959DED260B9DED17
:105A2000002B30EE420B9DED022B20EE020B9DED84
:105A3000262B02EE010B9DED001B9DED022B21EEAE
:105A4000021B8DED021B30EE011B11EE900A11EED0
:105A5000101A8DED001B904224DB821A11430ED1E7
:105A60009FED831B9DED002B9DED023B30EE011B56
:105A700032EE432BB4EEC21BF1EE10FA26DD02200B
:105A8000FAF789FF00F074F910EE901A18EE900AF8
:105A90008DED020B8DED008B61F31E0003909DEDEB
:105AA000020B25E5744B20F000429A420ED3734A54
:105AB000024411437FF444AE9DED022B31EE421BB4
:105AC000B4EEC01BF1EE10FABFF63AAE20F0004182
:105AD0006B4A6C4B002402EB21529942D8BF9DEDDA
